:030000000214E007
:0C14E000787FE4F6D8FD758155021527D1
:1016F8004572726F723A0057694669204661696C93
:101708006564004D515454204661696C6564004914
:101718006E69742E2E2E0054656D703A200048753F
:041728006D3A2000F6
:1017DD00015200014700024900000250000001467D
:0717ED000001480001450066
:10182A005389F0438901758C4BE4F58AD2A9D28C8D
:01183A00228B
:0400030075C127227A
:0400070043C11022BF
:1016C2008F091200007BFF7A1679F8E4FDFF120001
:1016D20000E50930E00D7BFF7A1679FF7D02E4FF19
:1016E200120000E50930E10D7BFF7A17790B7D04CA
:0616F200E4FF12000022DB
:1011F100E4F50853B2FB43B10443B20853B1F753CA
:10120100CACF53C9CF1217FE12000012182A1200BA
:1012110003D2AF7BFF7A177917E4FDFF120000E4D8
:10122100F5081210E3EF70107FD07E0712000E0553
:1012310008E508C3940340EAE508C39403400A4360
:101241004601AF461216C280091208EBEF70034344
:1012510046021200007BFF7A17791FE4FDFF12009E
:10126100007BFF7A1779267D02E4FF120000E55327
:1012710024FF92B3E55260F6E4F552FB7A00794B14
:10128100120000EF6052E54D75F00AA4AEF07C004B
:10129100254EF54AEC3EF549E54B75F00AA4AEF052
:1012A100254CF551EC3EF550754701750002AB4AEE
:1012B100AA49E4FD7F28120000750002AB51AA5033
:1012C1007D027F28120000E5467010AD51AC50AF91
:1012D1004AAE491200268003434604120007E4F592
:0312E10048808BB7
:03000B0002175C7D
:04175C00C0E0C0D059
:10176000758C4B758A000545E545C3945040067558
:1017700045007552010548E548C3941E4006120015
:0417800007754800A1
:05178400D0D0D0E032DE
:10000E00EF4E600F7D0F7C5ADCFEDDFCEF1F70F0B3
:03001E001E80ED54
:0100210022BC
:10181800EF4E600D00007D01DDFEEF1F70F21E80AF
:01182800EFD0
:01182900229C
:10144A00796F75725F776966695F7373696400792A
:10145A006F75725F776966695F70617373776F72B0
:10146A006400796F75725F6465766963655F6E6142
:10147A006D6500796F75725F6465766963655F692A
:10148A006400796F75725F746F6B656E006D71744D
:10149A0074732E6865636C6F7564732E636F6D0069
:1014AA0041542B5253540D0A0041540D0A004F4B1C
:1014BA000041542B43574D4F44453D310D0A0041DD
:1014CA00542B4357444843503D312C310D0A0022D6
:0614DA004C4544223A00DB
:0917F400015300015500015400ED
:1017FE00759850438E40538EFE53890F758BE87546
:0A180E008DFFC2ABD28E53A23F2221
:1017B4007D107C27C2ACC2998F99209909ED1D70C8
:1017C400011C144C70F4C299D2ACD3ED9400EC9487
:0817D4000040037F01227F00A9
:0117DC0022EA
:06172C007B017A00790048
:101732008B2A8A2B892CAB2AAA2BA92C1212E4FF02
:1017420060171217B47F057E001218187401252C39
:0A175200F52CE4352BF52B80DD2289
:06166B007BFF7A1479B840
:0A1671008B178A1889198C1A8D1B3B
:10167B00E4F51CF51DF554C3E51D951BE51C951AEA
:10168B005032E554601DE4F55485173C85183D85B3
:10169B00193E7B017A0079A012156CE94A4B600365
:1016AB007F01227F017E0012000E051DE51D70C714
:0616BB00051C80C37F0046
:0116C1002206
:10183B00121732AB12AA13A914AD16AC15021671FE
:0A13AA008E2A8F2B8B2C8A2D892EA2
:1013B400E4F52FFBC3E52A64809480500C0BC3E44E
:1013C400952BF52BE4952AF52AAE2AAF2B7C007DCC
:1013D4000A12131FED2430FFAE2F052F74312EF89F
:1013E400A607AE2AAF2B7C007D0A12131F8E2A8F0C
:1013F4002BD3E52B9400E52A6480948050CBEB60DA
:101404000AAF2F052F74312FF8762DE4F530E5302F
:10141400C3952F501EC3E52F9530FF74302FF8E687
:10142400AB2CAA2DA92E8530827583001212FD05DE
:101434003080DBAB2CAA2DA92E852F82758300E486
:051444001212FDAF2FA4
:011449002280
:060FB7008B0A8A0B890C75
:100FBD00E4FF750DFF750E14750F4A7510FF751151
:100FCD00147512590FF582F58374411212FD0F90AD
:100FDD00000174541212FD0F900002742B1212FDB9
:100FED000F90000374431212FD0F900004745712FA
:100FFD0012FD0F900005744A1212FD0F9000067439
:10100D00411212FD0F90000774501212FD0F900047
:10101D0008743D1212FD0F90000974228026AB0D4D
:10102D00AA0EA90F1212E46020050FE50F7002053C
:10103D000E14F91212E4AB0AAA0BA90CAD070F8D11
:10104D00827583001212FD80D5AB0AAA0BA90CAED6
:10105D00070F8E8275830074221212FDAE070F8E5C
:10106D0082758300742C1212FDAE070F8E8275836C
:10107D000074228026AB10AA11A9121212E460206E
:10108D000512E5127002051114F91212E4AB0AAA49
:10109D000BA90CAD070F8D827583001212FD80D543
:1010AD00AB0AAA0BA90CAE070F8E827583007422B2
:1010BD001212FDAE070F8E82758300740D1212FD94
:1010CD00AE070F8E82758300740A1212FD8F827522
:0610DD008300E40212FD95
:060C22008B0A8A0B890C0D
:100C2800E4FF750DFF750E14750F6C7510FF7511C7
:100C38001475127D7513FF75141475158C0FF582D4
:100C4800F58374411212FD0F90000174541212FDC5
:100C58000F900002742B1212FD0F900003744D12B6
:100C680012FD0F90000474511212FD0F90000574CC
:100C7800541212FD0F90000674541212FD0F9000CA
:100C88000774551212FD0F90000874531212FD0FCD
:100C980090000974451212FD0F90000A7452121246
:100CA800FD0F90000B74431212FD0F90000C744658
:100CB8001212FD0F90000D74471212FD0F90000ED6
:100CC800743D1212FD0F90000F74301212FD0F9038
:100CD8000010742C1212FD0F90001174311212FDC5
:100CE8000F900012742C1212FD0F900013742280C2
:100CF80026AB0DAA0EA90F1212E46020050FE50F0E
:100D08007002050E14F91212E4AB0AAA0BA90CAD75
:100D1800070F8D827583001212FD80D5AB0AAA0BCE
:100D2800A90CAE070F8E8275830074221212FDAED5
:100D3800070F8E82758300742C1212FDAE070F8E7A
:100D48008275830074228026AB10AA11A912121290
:100D5800E460200512E5127002051114F91212E47C
:100D6800AB0AAA0BA90CAD070F8D8275830012126E
:100D7800FD80D5AB0AAA0BA90CAE070F8E8275832E
:100D88000074221212FDAE070F8E82758300742C38
:100D98001212FDAE070F8E8275830074228026AB77
:100DA80013AA14A9151212E460200515E51570029E
:100DB800051414F91212E4AB0AAA0BA90CAD070F1B
:100DC8008D827583001212FD80D5AB0AAA0BA90C7F
:100DD800AE070F8E8275830074221212FDAE070FC4
:100DE8008E82758300742C1212FDAE070F8E8275E9
:100DF800830074301212FDAE070F8E827583007463
:100E08002C1212FDAE070F8E8275830074301212F9
:100E1800FDAE070F8E82758300742C1212FDAE078B
:100E28000F8E8275830074221212FDAE070F8E8218
:100E380075830074221212FDAE070F8E827583002F
:100E4800740D1212FDAE070F8E82758300740A129C
:0B0E580012FD8F82758300E40212FD82
:060E63008B0A8A0B890CCA
:100E6900E4FF750DFF750E14750F970FF582F58365
:100E790074411212FD0F90000174541212FD0F906B
:100E89000002742B1212FD0F900003744D1212FD13
:100E99000F90000474511212FD0F90000574541242
:100EA90012FD0F90000674541212FD0F9000077482
:100EB900431212FD0F900008744F1212FD0F90009B
:100EC90009744E1212FD0F90000A744E1212FD0F92
:100ED90090000B743D1212FD0F90000C7430121229
:100EE900FD0F90000D742C1212FD0F90000E74224C
:100EF9008026AB0DAA0EA90F1212E46020050FE59A
:100F09000F7002050E14F91212E4AB0AAA0BA90C10
:100F1900AD070F8D827583001212FD80D5AB0AAA29
:100F29000BA90CAE070F8E8275830074221212FD75
:100F3900AE070F8E82758300742C1212FDAE070F57
:100F49008E8275830074311212FDAE070F8E827581
:100F5900830074381212FDAE070F8E8275830074F8
:100F6900381212FDAE070F8E827583007433121288
:100F7900FDAE070F8E82758300742C1212FDAE0729
:100F89000F8E8275830074311212FDAE070F8E82A7
:100F9900758300740D1212FDAE070F8E82758300E2
:0E0FA900740A1212FD8F82758300E40212FD9D
:1010E300E4F5097BFF7A1479AA1217327FD07E07C1
:1010F30012000EE4F5097512FF7513147514B87513
:1011030015037516E87BFF7A1479B312183BEF7059
:10111300090509E509C3940340DCE509C3940340C9
:10112300037F00227512FF7513147514B875150328
:101133007516E87BFF7A1479BB12183BEF7002FF38
:10114300227512FF7513147514B87515037516E817
:101153007BFF7A1479C912183BEF7002FF227B01DF
:101163007A007900120FB7E4F50912172C7D107C71
:101173002712166BEF70107FE87E0312000E05092D
:10118300E509C3940340E3E509C3940340037F00E7
:10119300227B017A007900120C227512FF75131459
:1011A3007514B87515077516D07B017A007900128E
:1011B300183BEF7002FF227B017A007900120E6365
:1011C300E4F50912172C7D887C1312166BEF70104F
:1011D3007FE87E0312000E0509E509C3940340E38B
:0D11E300E509C3940350047F0180027F00E2
:0111F00022DC
:1008EB00E4FF7509FF750A14750B7D750CFF750D0B
:1008FB0014750E6C0F2400F582E43400F5837441FB
:10090B00F00F74002401F582E43400F5837454F085
:10091B000F74002402F582E43400F583742BF00F7E
:10092B0074002403F582E43400F583744DF00F74E6
:10093B00002404F582E43400F5837451F00F740045
:10094B002405F582E43400F5837454F00F7400240D
:10095B0006F582E43400F5837454F00F7400240719
:10096B00F582E43400F5837453F00F74002408F51A
:10097B0082E43400F5837455F00F74002409F5827A
:10098B00E43400F5837442F00F7400240AF582E41A
:10099B003400F583743DF00F7400240BF582E434BE
:1009AB0000F5837430F00F7400240CF582E43400EE
:1009BB00F583742CF00F7400240DF582E43400F5EC
:1009CB00837422F00F7400240EF582E43400F58357
:1009DB007424F00F7400240FF582E43400F5837453
:1009EB0073F00F74002410F582E43400F5837479EE
:1009FB00F00F74002411F582E43400F5837473F066
:100A0B000F74002412F582E43400F583742FF0ABDD
:100A1B0009AA0AA90B1212E4601F050BE50B700261
:100A2B00050A14F91212E4FEAD070F74002DF582BE
:100A3B00E43400F583EEF080D6AE070F74002EF58C
:100A4B0082E43400F583742FF0AB0CAA0DA90E12BF
:100A5B0012E4601F050EE50E7002050D14F912125B
:100A6B00E4FEAD070F74002DF582E43400F583EE40
:100A7B00F080D6AE070F74002EF582E43400F583B8
:100A8B00742FF0AE070F74002EF582E43400F5835B
:100A9B007474F0AE070F74002EF582E43400F58306
:100AAB007468F0AE070F74002EF582E43400F58302
:100ABB007469F0AE070F74002EF582E43400F583F1
:100ACB00746EF0AE070F74002EF582E43400F583DC
:100ADB007467F0AE070F74002EF582E43400F583D3
:100AEB00742FF0AE070F74002EF582E43400F583FB
:100AFB007470F0AE070F74002EF582E43400F583AA
:100B0B007472F0AE070F74002EF582E43400F58397
:100B1B00746FF0AE070F74002EF582E43400F5838A
:100B2B007470F0AE070F74002EF582E43400F58379
:100B3B007465F0AE070F74002EF582E43400F58374
:100B4B007472F0AE070F74002EF582E43400F58357
:100B5B007474F0AE070F74002EF582E43400F58345
:100B6B007479F0AE070F74002EF582E43400F58330
:100B7B00742FF0AE070F74002EF582E43400F5836A
:100B8B007473F0AE070F74002EF582E43400F58316
:100B9B007465F0AE070F74002EF582E43400F58314
:100BAB007474F0AE070F74002EF582E43400F583F5
:100BBB007422F0AE070F74002EF582E43400F58337
:100BCB00742CF0AE070F74002EF582E43400F5831D
:100BDB007430F0AE070F74002EF582E43400F58309
:100BEB00740DF0AE070F74002EF582E43400F5831C
:100BFB00740AF074002FF582E43400F583E4F07589
:100C0B0012FF7513147514B87515077516D07B0183
:070C1B007A00790002183B8A
:080026008E098F0A8D828C8384
:10002E00E4F50B7523FF75241475257D7526FF7574
:10003E00271475286CFC7D0A12131FAB07AA06AE97
:10004E0009AF0A7C007D0A12131F8C1D8D1EC3E59D
:10005E001D64809480500BC3E4951EF51EE4951D1F
:10006E00F51D7C007D0AAF82AE8312131F8E1F8F8B
:10007E0020AE83AF827C007D0A12131F8C218D224D
:10008E00C3E52164809480500BC3E49522F522E4ED
:10009E009521F521AF03AE027B007A00790C121385
:1000AE00AA8F1C7B007A007914AF20AE1F1213AA00
:1000BE00AE0B050B74002EF582E43400F58374410B
:1000CE00F0AE0B050B74002EF582E43400F583744C
:1000DE0054F0AE0B050B74002EF582E43400F5835C
:1000EE00742BF0AE0B050B74002EF582E43400F584
:1000FE0083744DF0AE0B050B74002EF582E43400C4
:10010E00F5837451F0AE0B050B74002EF582E434BA
:10011E0000F5837454F0AE0B050B74002EF582E4DB
:10012E003400F5837454F0AE0B050B74002EF5827B
:10013E00E43400F5837450F0AE0B050B74002EF50D
:10014E0082E43400F5837455F0AE0B050B74002E6B
:10015E00F582E43400F5837442F0AE0B050B7400A7
:10016E002EF582E43400F583743DF0AE0B050B746E
:10017E00002EF582E43400F5837430F0AE0B050BDF
:10018E0074002EF582E43400F583742CF0AE0B056A
:10019E000B74002EF582E43400F5837422F0AE0B5E
:1001AE00050B74002EF582E43400F5837424F0AE52
:1001BE000B050B74002EF582E43400F5837473F096
:1001CE00AE0B050B74002EF582E43400F5837479C2
:1001DE00F0AE0B050B74002EF582E43400F583743B
:1001EE0073F0AE0B050B74002EF582E43400F5832C
:1001FE00742FF0AB23AA24A9251212E46020052542
:10020E00E5257002052414F91212E4FEAD0B050B60
:10021E0074002DF582E43400F583EEF080D5AE0B3C
:10022E00050B74002EF582E43400F583742FF0ABC9
:10023E0026AA27A9281212E460200528E5287002B4
:10024E00052714F91212E4FEAD0B050B74002DF503
:10025E0082E43400F583EEF080D5AE0B050B74000E
:10026E002EF582E43400F583742FF0AE0B050B747B
:10027E00002EF582E43400F5837474F0AE0B050B9A
:10028E0074002EF582E43400F5837468F0AE0B052D
:10029E000B74002EF582E43400F5837469F0AE0B16
:1002AE00050B74002EF582E43400F583746EF0AE07
:1002BE000B050B74002EF582E43400F5837467F0A1
:1002CE00AE0B050B74002EF582E43400F583742F0B
:1002DE00F0AE0B050B74002EF582E43400F583743A
:1002EE0070F0AE0B050B74002EF582E43400F5832E
:1002FE007472F0AE0B050B74002EF582E43400F52B
:10030E0083746FF0AE0B050B74002EF582E434008F
:10031E00F5837470F0AE0B050B74002EF582E43489
:10032E0000F5837465F0AE0B050B74002EF582E4B8
:10033E003400F5837472F0AE0B050B74002EF5824B
:10034E00E43400F5837474F0AE0B050B74002EF5D7
:10035E0082E43400F5837479F0AE0B050B74002E35
:10036E00F582E43400F583742FF0AE0B050B7400A8
:10037E002EF582E43400F5837470F0AE0B050B7429
:10038E00002EF582E43400F583746FF0AE0B050B8E
:10039E0074002EF582E43400F5837473F0AE0B0511
:1003AE000B74002EF582E43400F5837474F0AE0BFA
:1003BE00050B74002EF582E43400F5837422F0AE42
:1003CE000B050B74002EF582E43400F583742CF0CB
:1003DE00AE0B050B74002EF582E43400F583742207
:1003EE00F0AE0B050B74002EF582E43400F5837429
:1003FE007BF0AE0B050B74002EF582E43400F58312
:10040E007422F0AE0B050B74002EF582E43400F569
:10041E00837469F0AE0B050B74002EF582E4340084
:10042E00F5837464F0AE0B050B74002EF582E43484
:10043E0000F5837422F0AE0B050B74002EF582E4EA
:10044E003400F583743AF0AE0B050B74002EF58272
:10045E00E43400F5837422F0AE0B050B74002EF518
:10046E0082E43400F5837431F0AE0B050B74002E6C
:10047E00F582E43400F5837432F0AE0B050B740094
:10048E002EF582E43400F5837433F0AE0B050B7455
:10049E00002EF582E43400F5837422F0AE0B050BCA
:1004AE0074002EF582E43400F583742CF0AE0B0547
:1004BE000B74002EF582E43400F5837422F0AE0B3B
:1004CE00050B74002EF582E43400F5837470F0AEE3
:1004DE000B050B74002EF582E43400F5837461F085
:1004EE00AE0B050B74002EF582E43400F5837472A6
:1004FE00F0AE0B050B74002EF582E43400F5837418
:10050E0061F0AE0B050B74002EF582E43400F5831A
:10051E00746DF0AE0B050B74002EF582E43400F50D
:10052E00837473F0AE0B050B74002EF582E4340069
:10053E00F5837422F0AE0B050B74002EF582E434B5
:10054E0000F583743AF0AE0B050B74002EF582E4C1
:10055E003400F583747BF0AE0B050B74002EF58220
:10056E00E43400F5837422F0AE0B050B74002EF507
:10057E0082E43400F5837474F0AE0B050B74002E18
:10058E00F582E43400F5837465F0AE0B050B740050
:10059E002EF582E43400F583746DF0AE0B050B740A
:1005AE00002EF582E43400F5837470F0AE0B050B6B
:1005BE0074002EF582E43400F5837422F0AE0B0540
:1005CE000B74002EF582E43400F583743AF0AE0B12
:1005DE00050B74002EF582E43400F583747BF0AEC7
:1005EE000B050B74002EF582E43400F5837422F0B3
:1005FE00AE0B050B74002EF582E43400F583747691
:10060E00F0AE0B050B74002EF582E43400F5837406
:10061E0061F0AE0B050B74002EF582E43400F58309
:10062E00746CF0AE0B050B74002EF582E43400F5FD
:10063E00837475F0AE0B050B74002EF582E4340056
:10064E00F5837465F0AE0B050B74002EF582E43461
:10065E0000F5837422F0AE0B050B74002EF582E4C8
:07066E003400F583743AF03B
:10067500E4F529E529C3951C501B740C2529F8E6DA
:10068500FEAD0B050B74002DF582E43400F583EE09
:10069500F0052980DEAE0B050B74002EF582E434DF
:1006A50000F583742EF0E51E2430FEAD0B050B74AA
:0B06B500002DF582E43400F583EEF028
:1006C000AE0B050B74002EF582E43400F583747DC7
:1006D000F0AE0B050B74002EF582E43400F5837444
:1006E0002CF0AE0B050B74002EF582E43400F5837C
:1006F0007422F0AE0B050B74002EF582E43400F585
:10070000837468F0AE0B050B74002EF582E43400A0
:10071000F5837475F0AE0B050B74002EF582E4348E
:1007200000F583746DF0AE0B050B74002EF582E4BA
:100730003400F5837422F0AE0B050B74002EF582A5
:10074000E43400F583743AF0AE0B050B74002EF51B
:1007500082E43400F583747BF0AE0B050B74002E3D
:10076000F582E43400F5837422F0AE0B050B7400BF
:100770002EF582E43400F5837476F0AE0B050B742D
:10078000002EF582E43400F5837461F0AE0B050BA6
:1007900074002EF582E43400F583746CF0AE0B0522
:1007A0000B74002EF582E43400F5837475F0AE0B03
:1007B000050B74002EF582E43400F5837465F0AE09
:1007C0000B050B74002EF582E43400F5837422F0DF
:1007D000AE0B050B74002EF582E43400F583743AF9
:0107E000F028
:1007E100E4F529E529C39F501B74142529F8E6FE79
:1007F100AD0B050B74002DF582E43400F583EEF0AA
:10080100052980DFAF0B050B74002FF582E434005E
:10081100F583742EF0E5222430FFAE0B050B740036
:0A0821002EF582E43400F583EFF0B9
:10082B00AF0B050B74002FF582E43400F583747D58
:10083B00F0AF0B050B74002FF582E43400F58374D5
:10084B007DF0AF0B050B74002FF582E43400F583BC
:10085B00747DF0AF0B050B74002FF582E43400F5BB
:10086B00837422F0AF0B050B74002FF582E4340078
:10087B00F583742CF0AF0B050B74002FF582E43469
:10088B0000F5837430F0AF0B050B74002FF582E489
:10089B003400F583742CF0AF0B050B74002FF5822D
:1008AB00E43400F5837430F0AF0B050B74002FF5B7
:1008BB0082E43400F583740DF0AF0B050B74002F3D
:1008CB00F582E43400F583740AF07400250BF5828D
:1008DB00E43400F583E4F07B017A007900021732EF
:10178900753CFF753D14753ED912156CEA494B60DD
:1017990019740629F9E43AFA1212E4FFB43104750E
:0A17A900530122EFB43003E4F553BE
:0117B3002213
:030023000215EED5
:1015EE00C0E0C0F0C083C082C0D075D000C000C0C3
:0D15FE0001C002C003C004C005C006C00744
:10160B00309902C29930983DC298AF99E555C39471
:10161B007F4003755500AE55055574A02EF582E439
:10162B003400F583EFF0BF0A1C74A02555F582E456
:10163B003400F583E4F07554017B017A0079A01234
:05164B00178975550030
:10165000D007D006D005D004D003D002D001D000EE
:0B166000D0D0D082D083D0F0D0E03298
:1014EC000211F1E493A3F8E493A34003F68001F214
:1014FC0008DFF48029E493A3F85407240CC8C33301
:10150C00C4540F4420C8834004F456800146F6DFCF
:10151C00E4800B01020408102040809017DDE47E6B
:10152C00019360BCA3FF543F30E509541FFEE493C4
:10153C00A360010ECF54C025E060A840B8E493A38B
:10154C00FAE493A3F8E493A3C8C582C8CAC583CAB6
:10155C00F0A3C8C582C8CAC583CADFE9DEE780BE6E
:0117FD0000EB
:1012E400BB010689828A83E0225002E722BBFE0208
:0912F400E32289828A83E493223B
:1012FD00F8BB010DE58229F582E5833AF583E8F027
:10130D00225006E92582C8F622BBFE05E92582C8D2
:02131D00F222BA
:10131F00C2D5EC30E709B2D5E4C39DFDE49CFCEEE9
:10132F0030E715B2D5E4C39FFFE49EFE121355C3F9
:10133F00E49DFDE49CFC800312135530D507C3E4F4
:06134F009FFFE49EFE2258
:10156C008B398A3A893BAB3CAA3DA93E1212E46006
:10157C0063AB39AA3AA93B1212E4605F853C3F8504
:10158C003D40853E418B428A438944AB3FAA40A9EA
:10159C00411212E4FF6023AB42AA43A9441212E4A5
:1015AC006F7017042541F541E43540F54074012571
:1015BC0044F544E43543F54380D1AB3FAA40A941FF
:1015CC001212E47002800D7401253BF53BE4353AB0
:1015DC00F53A809DAB39AA3AA93B227B007A007977
:0215EC000022DB
:10135500BC000BBE0029EF8DF084FFADF022E4CC7C
:10136500F875F008EF2FFFEE33FEEC33FCEE9DEC45
:10137500984005FCEE9DFE0FD5F0E9E4CEFD22ED8B
:10138500F8F5F0EE8420D21CFEADF075F008EF2FD5
:10139500FFED33FD4007985006D5F0F222C398FDC6
:0513A5000FD5F0EA2263
:00000001FF
